{
  "contractName": "Crowdsale",
  "abi": [
    {
      "constant": true,
      "inputs": [],
      "name": "totalPayments",
      "outputs": [
        {
          "name": "",
          "type": "uint256"
        }
      ],
      "payable": false,
      "stateMutability": "view",
      "type": "function"
    },
    {
      "constant": false,
      "inputs": [
        {
          "name": "_beneficiary",
          "type": "address"
        }
      ],
      "name": "removeFromPresaleWhitelist",
      "outputs": [],
      "payable": false,
      "stateMutability": "nonpayable",
      "type": "function"
    },
    {
      "constant": true,
      "inputs": [
        {
          "name": "",
          "type": "address"
        }
      ],
      "name": "bonusBalances",
      "outputs": [
        {
          "name": "",
          "type": "uint256"
        }
      ],
      "payable": false,
      "stateMutability": "view",
      "type": "function"
    },
    {
      "constant": true,
      "inputs": [],
      "name": "totalTokensForPresale",
      "outputs": [
        {
          "name": "",
          "type": "uint256"
        }
      ],
      "payable": false,
      "stateMutability": "view",
      "type": "function"
    },
    {
      "constant": true,
      "inputs": [
        {
          "name": "",
          "type": "address"
        }
      ],
      "name": "presalewhitelist",
      "outputs": [
        {
          "name": "",
          "type": "bool"
        }
      ],
      "payable": false,
      "stateMutability": "view",
      "type": "function"
    },
    {
      "constant": true,
      "inputs": [],
      "name": "minFundingGoal",
      "outputs": [
        {
          "name": "",
          "type": "uint256"
        }
      ],
      "payable": false,
      "stateMutability": "view",
      "type": "function"
    },
    {
      "constant": true,
      "inputs": [
        {
          "name": "",
          "type": "uint256"
        }
      ],
      "name": "bonusList",
      "outputs": [
        {
          "name": "",
          "type": "address"
        }
      ],
      "payable": false,
      "stateMutability": "view",
      "type": "function"
    },
    {
      "constant": true,
      "inputs": [],
      "name": "rate",
      "outputs": [
        {
          "name": "",
          "type": "uint256"
        }
      ],
      "payable": false,
      "stateMutability": "view",
      "type": "function"
    },
    {
      "constant": true,
      "inputs": [],
      "name": "tokensForAdvisors",
      "outputs": [
        {
          "name": "",
          "type": "uint256"
        }
      ],
      "payable": false,
      "stateMutability": "view",
      "type": "function"
    },
    {
      "constant": false,
      "inputs": [],
      "name": "unpause",
      "outputs": [],
      "payable": false,
      "stateMutability": "nonpayable",
      "type": "function"
    },
    {
      "constant": false,
      "inputs": [
        {
          "name": "_beneficiaries",
          "type": "address[]"
        }
      ],
      "name": "addManyToPresaleWhitelist",
      "outputs": [],
      "payable": false,
      "stateMutability": "nonpayable",
      "type": "function"
    },
    {
      "constant": true,
      "inputs": [],
      "name": "presaleRate",
      "outputs": [
        {
          "name": "",
          "type": "uint256"
        }
      ],
      "payable": false,
      "stateMutability": "view",
      "type": "function"
    },
    {
      "constant": true,
      "inputs": [],
      "name": "STARTDATEPRESALE",
      "outputs": [
        {
          "name": "",
          "type": "uint256"
        }
      ],
      "payable": false,
      "stateMutability": "view",
      "type": "function"
    },
    {
      "constant": true,
      "inputs": [],
      "name": "maxFundingGoal",
      "outputs": [
        {
          "name": "",
          "type": "uint256"
        }
      ],
      "payable": false,
      "stateMutability": "view",
      "type": "function"
    },
    {
      "constant": true,
      "inputs": [],
      "name": "paused",
      "outputs": [
        {
          "name": "",
          "type": "bool"
        }
      ],
      "payable": false,
      "stateMutability": "view",
      "type": "function"
    },
    {
      "constant": true,
      "inputs": [],
      "name": "totalTokensForSale",
      "outputs": [
        {
          "name": "",
          "type": "uint256"
        }
      ],
      "payable": false,
      "stateMutability": "view",
      "type": "function"
    },
    {
      "constant": false,
      "inputs": [],
      "name": "withdrawPayments",
      "outputs": [],
      "payable": false,
      "stateMutability": "nonpayable",
      "type": "function"
    },
    {
      "constant": true,
      "inputs": [],
      "name": "savedPresaleTokenBalance",
      "outputs": [
        {
          "name": "",
          "type": "uint256"
        }
      ],
      "payable": false,
      "stateMutability": "view",
      "type": "function"
    },
    {
      "constant": true,
      "inputs": [],
      "name": "tokensForBounty",
      "outputs": [
        {
          "name": "",
          "type": "uint256"
        }
      ],
      "payable": false,
      "stateMutability": "view",
      "type": "function"
    },
    {
      "constant": false,
      "inputs": [],
      "name": "renounceOwnership",
      "outputs": [],
      "payable": false,
      "stateMutability": "nonpayable",
      "type": "function"
    },
    {
      "constant": true,
      "inputs": [],
      "name": "savedBalance",
      "outputs": [
        {
          "name": "",
          "type": "uint256"
        }
      ],
      "payable": false,
      "stateMutability": "view",
      "type": "function"
    },
    {
      "constant": true,
      "inputs": [],
      "name": "STARTDATE",
      "outputs": [
        {
          "name": "",
          "type": "uint256"
        }
      ],
      "payable": false,
      "stateMutability": "view",
      "type": "function"
    },
    {
      "constant": false,
      "inputs": [],
      "name": "pause",
      "outputs": [],
      "payable": false,
      "stateMutability": "nonpayable",
      "type": "function"
    },
    {
      "constant": false,
      "inputs": [
        {
          "name": "_beneficiary",
          "type": "address"
        }
      ],
      "name": "removeFromWhitelist",
      "outputs": [],
      "payable": false,
      "stateMutability": "nonpayable",
      "type": "function"
    },
    {
      "constant": false,
      "inputs": [
        {
          "name": "_token",
          "type": "address"
        },
        {
          "name": "_percent",
          "type": "uint256"
        }
      ],
      "name": "distributeBonusToken",
      "outputs": [],
      "payable": false,
      "stateMutability": "nonpayable",
      "type": "function"
    },
    {
      "constant": false,
      "inputs": [
        {
          "name": "_beneficiaries",
          "type": "address[]"
        }
      ],
      "name": "addManyToWhitelist",
      "outputs": [],
      "payable": false,
      "stateMutability": "nonpayable",
      "type": "function"
    },
    {
      "constant": true,
      "inputs": [],
      "name": "owner",
      "outputs": [
        {
          "name": "",
          "type": "address"
        }
      ],
      "payable": false,
      "stateMutability": "view",
      "type": "function"
    },
    {
      "constant": true,
      "inputs": [],
      "name": "REFUNDEADLINE",
      "outputs": [
        {
          "name": "",
          "type": "uint256"
        }
      ],
      "payable": false,
      "stateMutability": "view",
      "type": "function"
    },
    {
      "constant": true,
      "inputs": [
        {
          "name": "",
          "type": "address"
        }
      ],
      "name": "whitelist",
      "outputs": [
        {
          "name": "",
          "type": "bool"
        }
      ],
      "payable": false,
      "stateMutability": "view",
      "type": "function"
    },
    {
      "constant": true,
      "inputs": [],
      "name": "crowdsale",
      "outputs": [
        {
          "name": "",
          "type": "bool"
        }
      ],
      "payable": false,
      "stateMutability": "view",
      "type": "function"
    },
    {
      "constant": true,
      "inputs": [],
      "name": "DEADLINE",
      "outputs": [
        {
          "name": "",
          "type": "uint256"
        }
      ],
      "payable": false,
      "stateMutability": "view",
      "type": "function"
    },
    {
      "constant": true,
      "inputs": [],
      "name": "savedTokenBalance",
      "outputs": [
        {
          "name": "",
          "type": "uint256"
        }
      ],
      "payable": false,
      "stateMutability": "view",
      "type": "function"
    },
    {
      "constant": true,
      "inputs": [
        {
          "name": "",
          "type": "address"
        }
      ],
      "name": "payments",
      "outputs": [
        {
          "name": "",
          "type": "uint256"
        }
      ],
      "payable": false,
      "stateMutability": "view",
      "type": "function"
    },
    {
      "constant": true,
      "inputs": [],
      "name": "savedBonusToken",
      "outputs": [
        {
          "name": "",
          "type": "uint256"
        }
      ],
      "payable": false,
      "stateMutability": "view",
      "type": "function"
    },
    {
      "constant": false,
      "inputs": [
        {
          "name": "_newOwner",
          "type": "address"
        }
      ],
      "name": "transferOwnership",
      "outputs": [],
      "payable": false,
      "stateMutability": "nonpayable",
      "type": "function"
    },
    {
      "constant": true,
      "inputs": [],
      "name": "token",
      "outputs": [
        {
          "name": "",
          "type": "address"
        }
      ],
      "payable": false,
      "stateMutability": "view",
      "type": "function"
    },
    {
      "constant": true,
      "inputs": [],
      "name": "tokensForTeam",
      "outputs": [
        {
          "name": "",
          "type": "uint256"
        }
      ],
      "payable": false,
      "stateMutability": "view",
      "type": "function"
    },
    {
      "constant": true,
      "inputs": [],
      "name": "presale",
      "outputs": [
        {
          "name": "",
          "type": "bool"
        }
      ],
      "payable": false,
      "stateMutability": "view",
      "type": "function"
    },
    {
      "inputs": [
        {
          "name": "_token",
          "type": "address"
        }
      ],
      "payable": false,
      "stateMutability": "nonpayable",
      "type": "constructor"
    },
    {
      "payable": true,
      "stateMutability": "payable",
      "type": "fallback"
    },
    {
      "anonymous": false,
      "inputs": [
        {
          "indexed": true,
          "name": "_contributor",
          "type": "address"
        },
        {
          "indexed": true,
          "name": "_value",
          "type": "uint256"
        },
        {
          "indexed": true,
          "name": "_tokens",
          "type": "uint256"
        }
      ],
      "name": "Contribution",
      "type": "event"
    },
    {
      "anonymous": false,
      "inputs": [
        {
          "indexed": true,
          "name": "_receiver",
          "type": "address"
        },
        {
          "indexed": true,
          "name": "_value",
          "type": "uint256"
        },
        {
          "indexed": true,
          "name": "_timestamp",
          "type": "uint256"
        }
      ],
      "name": "PayEther",
      "type": "event"
    },
    {
      "anonymous": false,
      "inputs": [
        {
          "indexed": true,
          "name": "_value",
          "type": "uint256"
        },
        {
          "indexed": true,
          "name": "_timestamp",
          "type": "uint256"
        }
      ],
      "name": "BurnTokens",
      "type": "event"
    },
    {
      "anonymous": false,
      "inputs": [
        {
          "indexed": true,
          "name": "_beneficiary",
          "type": "address"
        }
      ],
      "name": "AddedBeneficiary",
      "type": "event"
    },
    {
      "anonymous": false,
      "inputs": [
        {
          "indexed": true,
          "name": "_beneficiary",
          "type": "address"
        }
      ],
      "name": "AddedPresaleBeneficiary",
      "type": "event"
    },
    {
      "anonymous": false,
      "inputs": [],
      "name": "Pause",
      "type": "event"
    },
    {
      "anonymous": false,
      "inputs": [],
      "name": "Unpause",
      "type": "event"
    },
    {
      "anonymous": false,
      "inputs": [
        {
          "indexed": true,
          "name": "previousOwner",
          "type": "address"
        }
      ],
      "name": "OwnershipRenounced",
      "type": "event"
    },
    {
      "anonymous": false,
      "inputs": [
        {
          "indexed": true,
          "name": "previousOwner",
          "type": "address"
        },
        {
          "indexed": true,
          "name": "newOwner",
          "type": "address"
        }
      ],
      "name": "OwnershipTransferred",
      "type": "event"
    },
    {
      "constant": false,
      "inputs": [],
      "name": "closePresale",
      "outputs": [],
      "payable": false,
      "stateMutability": "nonpayable",
      "type": "function"
    },
    {
      "constant": false,
      "inputs": [
        {
          "name": "_rate",
          "type": "uint256"
        },
        {
          "name": "_totalTokensForPresale",
          "type": "uint256"
        }
      ],
      "name": "setParamsPresale",
      "outputs": [],
      "payable": false,
      "stateMutability": "nonpayable",
      "type": "function"
    },
    {
      "constant": false,
      "inputs": [
        {
          "name": "_rate",
          "type": "uint256"
        },
        {
          "name": "_maxCap",
          "type": "uint256"
        },
        {
          "name": "_minCap",
          "type": "uint256"
        }
      ],
      "name": "setParams",
      "outputs": [],
      "payable": false,
      "stateMutability": "nonpayable",
      "type": "function"
    },
    {
      "constant": true,
      "inputs": [],
      "name": "isComplete",
      "outputs": [
        {
          "name": "",
          "type": "bool"
        }
      ],
      "payable": false,
      "stateMutability": "view",
      "type": "function"
    },
    {
      "constant": true,
      "inputs": [],
      "name": "isSuccessful",
      "outputs": [
        {
          "name": "",
          "type": "bool"
        }
      ],
      "payable": false,
      "stateMutability": "view",
      "type": "function"
    },
    {
      "constant": true,
      "inputs": [],
      "name": "refundPeriodOver",
      "outputs": [
        {
          "name": "",
          "type": "bool"
        }
      ],
      "payable": false,
      "stateMutability": "view",
      "type": "function"
    },
    {
      "constant": true,
      "inputs": [],
      "name": "refundPeriodStart",
      "outputs": [
        {
          "name": "",
          "type": "bool"
        }
      ],
      "payable": false,
      "stateMutability": "view",
      "type": "function"
    },
    {
      "constant": false,
      "inputs": [
        {
          "name": "_newOwner",
          "type": "address"
        }
      ],
      "name": "finalize",
      "outputs": [],
      "payable": false,
      "stateMutability": "nonpayable",
      "type": "function"
    },
    {
      "constant": false,
      "inputs": [
        {
          "name": "_newOwner",
          "type": "address"
        }
      ],
      "name": "payout",
      "outputs": [],
      "payable": false,
      "stateMutability": "nonpayable",
      "type": "function"
    },
    {
      "constant": false,
      "inputs": [],
      "name": "refund",
      "outputs": [],
      "payable": false,
      "stateMutability": "nonpayable",
      "type": "function"
    },
    {
      "constant": false,
      "inputs": [
        {
          "name": "_newOwner",
          "type": "address"
        }
      ],
      "name": "transferTokenOwnership",
      "outputs": [],
      "payable": false,
      "stateMutability": "nonpayable",
      "type": "function"
    }
  ],
  "bytecode": "0x608060405260008060146101000a81548160ff02191690831515021790555073a167274d791bf4f9c0267300c85a92d4a1d06f8c600960006101000a81548173ffffffffffffffffffffffffffffffffffffffff021916908373ffffffffffffffffffffffffffffffffffffffff160217905550737b690bb1852b7b3c592ce9b457e09b82060ee051600a60006101000a81548173ffffffffffffffffffffffffffffffffffffffff021916908373ffffffffffffffffffffffffffffffffffffffff160217905550737cc2b50a1234d5418d69a5022647e9d53a38564a600b60006101000a81548173ffffffffffffffffffffffffffffffffffffffff021916908373ffffffffffffffffffffffffffffffffffffffff16021790555073cf6797210f1283549a5042b68ab67ae21b55e4f0600c60006101000a81548173ffffffffffffffffffffffffffffffffffffffff021916908373ffffffffffffffffffffffffffffffffffffffff16021790555069091b08e0303c64e0000060105568b8507a8207282000006011556a0943b1377290cbd80000006012556965a4da25d3016c0000006014556965a4da25d3016c0000006015556a0130ee8e717904440000006016556000601755600060185560006019553480156101e257600080fd5b50604051602080613fe683398101806040528101908080519060200190929190505050336000806101000a81548173ffffffffffffffffffffffffffffffffffffffff021916908373ffffffffffffffffffffffffffffffffffffffff16021790555033600560006101000a81548173ffffffffffffffffffffffffffffffffffffffff021916908373ffffffffffffffffffffffffffffffffffffffff16021790555080600d60006101000a81548173ffffffffffffffffffffffffffffffffffffffff021916908373ffffffffffffffffffffffffffffffffffffffff16021790555050613d0f806102d76000396000f300608060405260043610610250576000357c0100000000000000000000000000000000000000000000000000000000900463ffffffff1680625b44871461037157806301f7e49a1461039c5780630b7e9c44146103df5780630c930a4b1461042257806311b3840e146104795780631334a76c146104a457806321e6b53d146104ff57806325d0b4ef1461054257806328c32be61461056d578063298b0bcd1461059c5780632c4e722e1461060957806334d365381461063457806335b6a6c61461066b5780633f4ba83a1461069657806341f4ab98146106ad57806342f3938114610713578063461984dd1461073e5780634ef39b75146107695780635001780b146107ac578063590e1ae3146107d75780635a0ce676146107ee5780635c975abb1461082f57806360219c7b1461085e5780636103d70b14610889578063623fea1b146108a057806363cea450146108cb578063644280e2146108e2578063715018a61461090d578063785105f6146109245780637e4d5ea11461094f5780638456cb591461097a5780638ab1d681146109915780638b6d5933146109d45780638c10671c14610a215780638da5cb5b14610a8757806397284c9914610ade5780639b19251a14610b095780639c1e03a014610b64578063a082c86e14610b93578063ad3bf1f114610bbe578063b2fa1c9e14610bed578063bba10e4714610c1c578063e2982c2114610c47578063ec4cd0cf14610c9e578063effd106c14610ccd578063f2fde38b14610cf8578063fc0c546a14610d3b578063fde83a3414610d92578063fdea8e0b14610dbd575b600060149054906101000a900460ff1615151561026c57600080fd5b600960009054906101000a900473ffffffffffffffffffffffffffffffffffffffff1673ffffffffffffffffffffffffffffffffffffffff163373ffffffffffffffffffffffffffffffffffffffff16141561030b5734601b60003073ffffffffffffffffffffffffffffffffffffffff1673ffffffffffffffffffffffffffffffffffffffff1681526020019081526020016000208190555061036f565b601a60019054906101000a900460ff16801561032b5750635bbe76604210155b1561033e5761033933610dec565b61036e565b601a60009054906101000a900460ff16801561035e5750635bca53e04210155b1561036d5761036c3361145f565b5b5b5b005b34801561037d57600080fd5b50610386611daa565b6040518082815260200191505060405180910390f35b3480156103a857600080fd5b506103dd600480360381019080803573ffffffffffffffffffffffffffffffffffffffff169060200190929190505050611db0565b005b3480156103eb57600080fd5b50610420600480360381019080803573ffffffffffffffffffffffffffffffffffffffff169060200190929190505050611e66565b005b34801561042e57600080fd5b50610463600480360381019080803573ffffffffffffffffffffffffffffffffffffffff169060200190929190505050612763565b6040518082815260200191505060405180910390f35b34801561048557600080fd5b5061048e61277b565b6040518082815260200191505060405180910390f35b3480156104b057600080fd5b506104e5600480360381019080803573ffffffffffffffffffffffffffffffffffffffff169060200190929190505050612781565b604051808215151515815260200191505060405180910390f35b34801561050b57600080fd5b50610540600480360381019080803573ffffffffffffffffffffffffffffffffffffffff1690602001909291905050506127a1565b005b34801561054e57600080fd5b506105576128d4565b6040518082815260200191505060405180910390f35b34801561057957600080fd5b506105826128da565b604051808215151515815260200191505060405180910390f35b3480156105a857600080fd5b506105c7600480360381019080803590602001909291905050506128e8565b604051808273ffffffffffffffffffffffffffffffffffffffff1673ffffffffffffffffffffffffffffffffffffffff16815260200191505060405180910390f35b34801561061557600080fd5b5061061e612926565b6040518082815260200191505060405180910390f35b34801561064057600080fd5b50610669600480360381019080803590602001909291908035906020019092919050505061292c565b005b34801561067757600080fd5b506106806129b4565b6040518082815260200191505060405180910390f35b3480156106a257600080fd5b506106ab6129ba565b005b3480156106b957600080fd5b5061071160048036038101908080359060200190820180359060200190808060200260200160405190810160405280939291908181526020018383602002808284378201915050505050509192919290505050612a78565b005b34801561071f57600080fd5b50610728612bbd565b6040518082815260200191505060405180910390f35b34801561074a57600080fd5b50610753612bc3565b6040518082815260200191505060405180910390f35b34801561077557600080fd5b506107aa600480360381019080803573ffffffffffffffffffffffffffffffffffffffff169060200190929190505050612bcb565b005b3480156107b857600080fd5b506107c1612c69565b6040518082815260200191505060405180910390f35b3480156107e357600080fd5b506107ec612c6f565b005b3480156107fa57600080fd5b5061082d600480360381019080803590602001909291908035906020019092919080359060200190929190505050612dcf565b005b34801561083b57600080fd5b50610844612e7b565b604051808215151515815260200191505060405180910390f35b34801561086a57600080fd5b50610873612e8e565b6040518082815260200191505060405180910390f35b34801561089557600080fd5b5061089e612e94565b005b3480156108ac57600080fd5b506108b5612fb3565b6040518082815260200191505060405180910390f35b3480156108d757600080fd5b506108e0612fb9565b005b3480156108ee57600080fd5b506108f7613031565b6040518082815260200191505060405180910390f35b34801561091957600080fd5b50610922613037565b005b34801561093057600080fd5b50610939613139565b6040518082815260200191505060405180910390f35b34801561095b57600080fd5b5061096461313f565b6040518082815260200191505060405180910390f35b34801561098657600080fd5b5061098f613147565b005b34801561099d57600080fd5b506109d2600480360381019080803573ffffffffffffffffffffffffffffffffffffffff169060200190929190505050613207565b005b3480156109e057600080fd5b50610a1f600480360381019080803573ffffffffffffffffffffffffffffffffffffffff169060200190929190803590602001909291905050506132bd565b005b348015610a2d57600080fd5b50610a8560048036038101908080359060200190820180359060200190808060200260200160405190810160405280939291908181526020018383602002808284378201915050505050509192919290505050613700565b005b348015610a9357600080fd5b50610a9c613845565b604051808273ffffffffffffffffffffffffffffffffffffffff1673ffffffffffffffffffffffffffffffffffffffff16815260200191505060405180910390f35b348015610aea57600080fd5b50610af361386b565b6040518082815260200191505060405180910390f35b348015610b1557600080fd5b50610b4a600480360381019080803573ffffffffffffffffffffffffffffffffffffffff169060200190929190505050613873565b604051808215151515815260200191505060405180910390f35b348015610b7057600080fd5b50610b79613893565b604051808215151515815260200191505060405180910390f35b348015610b9f57600080fd5b50610ba86138a6565b6040518082815260200191505060405180910390f35b348015610bca57600080fd5b50610bd36138ae565b604051808215151515815260200191505060405180910390f35b348015610bf957600080fd5b50610c026138bc565b604051808215151515815260200191505060405180910390f35b348015610c2857600080fd5b50610c31613906565b6040518082815260200191505060405180910390f35b348015610c5357600080fd5b50610c88600480360381019080803573ffffffffffffffffffffffffffffffffffffffff16906020019092919050505061390c565b6040518082815260200191505060405180910390f35b348015610caa57600080fd5b50610cb3613924565b604051808215151515815260200191505060405180910390f35b348015610cd957600080fd5b50610ce2613933565b6040518082815260200191505060405180910390f35b348015610d0457600080fd5b50610d39600480360381019080803573ffffffffffffffffffffffffffffffffffffffff169060200190929190505050613939565b005b348015610d4757600080fd5b50610d506139a0565b604051808273ffffffffffffffffffffffffffffffffffffffff1673ffffffffffffffffffffffffffffffffffffffff16815260200191505060405180910390f35b348015610d9e57600080fd5b50610da76139c6565b6040518082815260200191505060405180910390f35b348015610dc957600080fd5b50610dd26139cc565b604051808215151515815260200191505060405180910390f35b6000806000670de0b6b3a76400003410151515610e0857600080fd5b610e11846139df565b1515610e1c57600080fd5b601054610e3434601754613a3590919063ffffffff16565b11151515610e4157600080fd5b601354610e6d610e5c600f5434613a5690919063ffffffff16565b601954613a3590919063ffffffff16565b11151515610e7a57600080fd5b678ac7230489e80000341015156111ff57610ea034601754613a3590919063ffffffff16565b601781905550610ebb600f5434613a5690919063ffffffff16565b9250610ee46064610ed6601e86613a8090919063ffffffff16565b613a5690919063ffffffff16565b9150610f0d610efc8385613a3590919063ffffffff16565b601854613a3590919063ffffffff16565b601881905550600d60009054906101000a900473ffffffffffffffffffffffffffffffffffffffff1673ffffffffffffffffffffffffffffffffffffffff1663a9059cbb85856040518363ffffffff167c0100000000000000000000000000000000000000000000000000000000028152600401808373ffffffffffffffffffffffffffffffffffffffff1673ffffffffffffffffffffffffffffffffffffffff16815260200182815260200192505050602060405180830381600087803b158015610fd857600080fd5b505af1158015610fec573d6000803e3d6000fd5b505050506040513d602081101561100257600080fd5b81019080805190602001909291905050505061102982600854613a3590919063ffffffff16565b60088190555061108182600660008773ffffffffffffffffffffffffffffffffffffffff1673ffffffffffffffffffffffffffffffffffffffff16815260200190815260200160002054613a3590919063ffffffff16565b600660008673ffffffffffffffffffffffffffffffffffffffff1673ffffffffffffffffffffffffffffffffffffffff1681526020019081526020016000208190555060078490806001815401808255809150509060018203906000526020600020016000909192909190916101000a81548173ffffffffffffffffffffffffffffffffffffffff021916908373ffffffffffffffffffffffffffffffffffffffff16021790555050600960009054906101000a900473ffffffffffffffffffffffffffffffffffffffff1673ffffffffffffffffffffffffffffffffffffffff166108fc349081150290604051600060405180830381858888f19350505050158015611192573d6000803e3d6000fd5b504234600960009054906101000a900473ffffffffffffffffffffffffffffffffffffffff1673ffffffffffffffffffffffffffffffffffffffff167f67848d9c2d923afb2c78cd66af34d1ba6abb924a3f9c44e6a03dfae94b2b814a60405160405180910390a4611459565b61121434601754613a3590919063ffffffff16565b60178190555061122f600f5434613a5690919063ffffffff16565b925061126a61125b606461124d601e87613a8090919063ffffffff16565b613a5690919063ffffffff16565b84613a3590919063ffffffff16565b905061128181601854613a3590919063ffffffff16565b601881905550600d60009054906101000a900473ffffffffffffffffffffffffffffffffffffffff1673ffffffffffffffffffffffffffffffffffffffff1663a9059cbb85836040518363ffffffff167c0100000000000000000000000000000000000000000000000000000000028152600401808373ffffffffffffffffffffffffffffffffffffffff1673ffffffffffffffffffffffffffffffffffffffff16815260200182815260200192505050602060405180830381600087803b15801561134c57600080fd5b505af1158015611360573d6000803e3d6000fd5b505050506040513d602081101561137657600080fd5b810190808051906020019092919050505050600960009054906101000a900473ffffffffffffffffffffffffffffffffffffffff1673ffffffffffffffffffffffffffffffffffffffff166108fc349081150290604051600060405180830381858888f193505050501580156113f0573d6000803e3d6000fd5b504234600960009054906101000a900473ffffffffffffffffffffffffffffffffffffffff1673ffffffffffffffffffffffffffffffffffffffff167f67848d9c2d923afb2c78cd66af34d1ba6abb924a3f9c44e6a03dfae94b2b814a60405160405180910390a45b50505050565b600080600061146c6138bc565b15151561147857600080fd5b60105461149034601754613a3590919063ffffffff16565b1115151561149d57600080fd5b6012546114c96114b8600e5434613a5690919063ffffffff16565b601854613a3590919063ffffffff16565b111515156114d657600080fd5b6114df84613abe565b15611adf57670de0b6b3a764000034101515156114fb57600080fd5b678ac7230489e80000341015156118805761152134601754613a3590919063ffffffff16565b60178190555061153c600f5434613a5690919063ffffffff16565b92506115656064611557601e86613a8090919063ffffffff16565b613a5690919063ffffffff16565b915061158e61157d8385613a3590919063ffffffff16565b601854613a3590919063ffffffff16565b601881905550600d60009054906101000a900473ffffffffffffffffffffffffffffffffffffffff1673ffffffffffffffffffffffffffffffffffffffff1663a9059cbb85856040518363ffffffff167c0100000000000000000000000000000000000000000000000000000000028152600401808373ffffffffffffffffffffffffffffffffffffffff1673ffffffffffffffffffffffffffffffffffffffff16815260200182815260200192505050602060405180830381600087803b15801561165957600080fd5b505af115801561166d573d6000803e3d6000fd5b505050506040513d602081101561168357600080fd5b8101908080519060200190929190505050506116aa82600854613a3590919063ffffffff16565b60088190555061170282600660008773ffffffffffffffffffffffffffffffffffffffff1673ffffffffffffffffffffffffffffffffffffffff16815260200190815260200160002054613a3590919063ffffffff16565b600660008673ffffffffffffffffffffffffffffffffffffffff1673ffffffffffffffffffffffffffffffffffffffff1681526020019081526020016000208190555060078490806001815401808255809150509060018203906000526020600020016000909192909190916101000a81548173ffffffffffffffffffffffffffffffffffffffff021916908373ffffffffffffffffffffffffffffffffffffffff16021790555050600960009054906101000a900473ffffffffffffffffffffffffffffffffffffffff1673ffffffffffffffffffffffffffffffffffffffff166108fc349081150290604051600060405180830381858888f19350505050158015611813573d6000803e3d6000fd5b504234600960009054906101000a900473ffffffffffffffffffffffffffffffffffffffff1673ffffffffffffffffffffffffffffffffffffffff167f67848d9c2d923afb2c78cd66af34d1ba6abb924a3f9c44e6a03dfae94b2b814a60405160405180910390a4611ada565b61189534601754613a3590919063ffffffff16565b6017819055506118b0600f5434613a5690919063ffffffff16565b92506118eb6118dc60646118ce601e87613a8090919063ffffffff16565b613a5690919063ffffffff16565b84613a3590919063ffffffff16565b905061190281601854613a3590919063ffffffff16565b601881905550600d60009054906101000a900473ffffffffffffffffffffffffffffffffffffffff1673ffffffffffffffffffffffffffffffffffffffff1663a9059cbb85836040518363ffffffff167c0100000000000000000000000000000000000000000000000000000000028152600401808373ffffffffffffffffffffffffffffffffffffffff1673ffffffffffffffffffffffffffffffffffffffff16815260200182815260200192505050602060405180830381600087803b1580156119cd57600080fd5b505af11580156119e1573d6000803e3d6000fd5b505050506040513d60208110156119f757600080fd5b810190808051906020019092919050505050600960009054906101000a900473ffffffffffffffffffffffffffffffffffffffff1673ffffffffffffffffffffffffffffffffffffffff166108fc349081150290604051600060405180830381858888f19350505050158015611a71573d6000803e3d6000fd5b504234600960009054906101000a900473ffffffffffffffffffffffffffffffffffffffff1673ffffffffffffffffffffffffffffffffffffffff167f67848d9c2d923afb2c78cd66af34d1ba6abb924a3f9c44e6a03dfae94b2b814a60405160405180910390a45b611da4565b611b3134601b60008773ffffffffffffffffffffffffffffffffffffffff1673ffffffffffffffffffffffffffffffffffffffff16815260200190815260200160002054613a3590919063ffffffff16565b601b60008673ffffffffffffffffffffffffffffffffffffffff1673ffffffffffffffffffffffffffffffffffffffff16815260200190815260200160002081905550611b8934601754613a3590919063ffffffff16565b601781905550611bb8611ba7600e5434613a5690919063ffffffff16565b601854613a3590919063ffffffff16565b601881905550600d60009054906101000a900473ffffffffffffffffffffffffffffffffffffffff1673ffffffffffffffffffffffffffffffffffffffff1663a9059cbb85611c12600e5434613a5690919063ffffffff16565b6040518363ffffffff167c0100000000000000000000000000000000000000000000000000000000028152600401808373ffffffffffffffffffffffffffffffffffffffff1673ffffffffffffffffffffffffffffffffffffffff16815260200182815260200192505050602060405180830381600087803b158015611c9757600080fd5b505af1158015611cab573d6000803e3d6000fd5b505050506040513d6020811015611cc157600080fd5b810190808051906020019092919050505050600960009054906101000a900473ffffffffffffffffffffffffffffffffffffffff1673ffffffffffffffffffffffffffffffffffffffff166108fc349081150290604051600060405180830381858888f19350505050158015611d3b573d6000803e3d6000fd5b504234600960009054906101000a900473ffffffffffffffffffffffffffffffffffffffff1673ffffffffffffffffffffffffffffffffffffffff167f67848d9c2d923afb2c78cd66af34d1ba6abb924a3f9c44e6a03dfae94b2b814a60405160405180910390a45b50505050565b60025481565b6000809054906101000a900473ffffffffffffffffffffffffffffffffffffffff1673ffffffffffffffffffffffffffffffffffffffff163373ffffffffffffffffffffffffffffffffffffffff16141515611e0b57600080fd5b6000600460008373ffffffffffffffffffffffffffffffffffffffff1673ffffffffffffffffffffffffffffffffffffffff16815260200190815260200160002060006101000a81548160ff02191690831515021790555050565b60008060009054906101000a900473ffffffffffffffffffffffffffffffffffffffff1673ffffffffffffffffffffffffffffffffffffffff163373ffffffffffffffffffffffffffffffffffffffff16141515611ec357600080fd5b611ecb613924565b8015611edb5750611eda6138bc565b5b1561247b57600d60009054906101000a900473ffffffffffffffffffffffffffffffffffffffff1673ffffffffffffffffffffffffffffffffffffffff1663a9059cbb600a60009054906101000a900473ffffffffffffffffffffffffffffffffffffffff166014546040518363ffffffff167c0100000000000000000000000000000000000000000000000000000000028152600401808373ffffffffffffffffffffffffffffffffffffffff1673ffffffffffffffffffffffffffffffffffffffff16815260200182815260200192505050602060405180830381600087803b158015611fc957600080fd5b505af1158015611fdd573d6000803e3d6000fd5b505050506040513d6020811015611ff357600080fd5b8101908080519060200190929190505050151561200f57600080fd5b600d60009054906101000a900473ffffffffffffffffffffffffffffffffffffffff1673ffffffffffffffffffffffffffffffffffffffff1663a9059cbb600c60009054906101000a900473ffffffffffffffffffffffffffffffffffffffff166015546040518363ffffffff167c0100000000000000000000000000000000000000000000000000000000028152600401808373ffffffffffffffffffffffffffffffffffffffff1673ffffffffffffffffffffffffffffffffffffffff16815260200182815260200192505050602060405180830381600087803b1580156120f857600080fd5b505af115801561210c573d6000803e3d6000fd5b505050506040513d602081101561212257600080fd5b8101908080519060200190929190505050151561213e57600080fd5b600d60009054906101000a900473ffffffffffffffffffffffffffffffffffffffff1673ffffffffffffffffffffffffffffffffffffffff1663a9059cbb600b60009054906101000a900473ffffffffffffffffffffffffffffffffffffffff166016546040518363ffffffff167c0100000000000000000000000000000000000000000000000000000000028152600401808373ffffffffffffffffffffffffffffffffffffffff1673ffffffffffffffffffffffffffffffffffffffff16815260200182815260200192505050602060405180830381600087803b15801561222757600080fd5b505af115801561223b573d6000803e3d6000fd5b505050506040513d602081101561225157600080fd5b8101908080519060200190929190505050151561226d57600080fd5b612379600854600d60009054906101000a900473ffffffffffffffffffffffffffffffffffffffff1673ffffffffffffffffffffffffffffffffffffffff166370a08231306040518263ffffffff167c0100000000000000000000000000000000000000000000000000000000028152600401808273ffffffffffffffffffffffffffffffffffffffff1673ffffffffffffffffffffffffffffffffffffffff168152602001915050602060405180830381600087803b15801561233057600080fd5b505af1158015612344573d6000803e3d6000fd5b505050506040513d602081101561235a57600080fd5b8101908080519060200190929190505050613b1490919063ffffffff16565b9050600d60009054906101000a900473ffffffffffffffffffffffffffffffffffffffff1673ffffffffffffffffffffffffffffffffffffffff166342966c68826040518263ffffffff167c010000000000000000000000000000000000000000000000000000000002815260040180828152602001915050602060405180830381600087803b15801561240c57600080fd5b505af1158015612420573d6000803e3d6000fd5b505050506040513d602081101561243657600080fd5b8101908080519060200190929190505050151561245257600080fd5b61245b826127a1565b6000601a60006101000a81548160ff02191690831515021790555061275f565b6124836138ae565b1561275e57600960009054906101000a900473ffffffffffffffffffffffffffffffffffffffff1673ffffffffffffffffffffffffffffffffffffffff166108fc3073ffffffffffffffffffffffffffffffffffffffff16319081150290604051600060405180830381858888f19350505050158015612507573d6000803e3d6000fd5b50423073ffffffffffffffffffffffffffffffffffffffff1631600960009054906101000a900473ffffffffffffffffffffffffffffffffffffffff1673ffffffffffffffffffffffffffffffffffffffff167f67848d9c2d923afb2c78cd66af34d1ba6abb924a3f9c44e6a03dfae94b2b814a60405160405180910390a4600d60009054906101000a900473ffffffffffffffffffffffffffffffffffffffff1673ffffffffffffffffffffffffffffffffffffffff166342966c68600d60009054906101000a900473ffffffffffffffffffffffffffffffffffffffff1673ffffffffffffffffffffffffffffffffffffffff166370a08231306040518263ffffffff167c0100000000000000000000000000000000000000000000000000000000028152600401808273ffffffffffffffffffffffffffffffffffffffff1673ffffffffffffffffffffffffffffffffffffffff168152602001915050602060405180830381600087803b15801561268157600080fd5b505af1158015612695573d6000803e3d6000fd5b505050506040513d60208110156126ab57600080fd5b81019080805190602001909291905050506040518263ffffffff167c010000000000000000000000000000000000000000000000000000000002815260040180828152602001915050602060405180830381600087803b15801561270e57600080fd5b505af1158015612722573d6000803e3d6000fd5b505050506040513d602081101561273857600080fd5b8101908080519060200190929190505050151561275457600080fd5b61275d826127a1565b5b5b5050565b60066020528060005260406000206000915090505481565b60135481565b60046020528060005260406000206000915054906101000a900460ff1681565b6000809054906101000a900473ffffffffffffffffffffffffffffffffffffffff1673ffffffffffffffffffffffffffffffffffffffff163373ffffffffffffffffffffffffffffffffffffffff161415156127fc57600080fd5b600d60009054906101000a900473ffffffffffffffffffffffffffffffffffffffff1673ffffffffffffffffffffffffffffffffffffffff1663f2fde38b826040518263ffffffff167c0100000000000000000000000000000000000000000000000000000000028152600401808273ffffffffffffffffffffffffffffffffffffffff1673ffffffffffffffffffffffffffffffffffffffff168152602001915050600060405180830381600087803b1580156128b957600080fd5b505af11580156128cd573d6000803e3d6000fd5b5050505050565b60115481565b6000635bf9d7f04211905090565b6007818154811015156128f757fe5b906000526020600020016000915054906101000a900473ffffffffffffffffffffffffffffffffffffffff1681565b600e5481565b6000809054906101000a900473ffffffffffffffffffffffffffffffffffffffff1673ffffffffffffffffffffffffffffffffffffffff163373ffffffffffffffffffffffffffffffffffffffff1614151561298757600080fd5b81600f81905550806013819055506001601a60016101000a81548160ff0219169083151502179055505050565b60165481565b6000809054906101000a900473ffffffffffffffffffffffffffffffffffffffff1673ffffffffffffffffffffffffffffffffffffffff163373ffffffffffffffffffffffffffffffffffffffff16141515612a1557600080fd5b600060149054906101000a900460ff161515612a3057600080fd5b60008060146101000a81548160ff0219169083151502179055507f7805862f689e2f13df9f062ff482ad3ad112aca9e0847911ed832e158c525b3360405160405180910390a1565b60008060009054906101000a900473ffffffffffffffffffffffffffffffffffffffff1673ffffffffffffffffffffffffffffffffffffffff163373ffffffffffffffffffffffffffffffffffffffff16141515612ad557600080fd5b600090505b8151811015612bb9576001600460008484815181101515612af757fe5b9060200190602002015173ffffffffffffffffffffffffffffffffffffffff1673ffffffffffffffffffffffffffffffffffffffff16815260200190815260200160002060006101000a81548160ff0219169083151502179055508181815181101515612b6057fe5b9060200190602002015173ffffffffffffffffffffffffffffffffffffffff167f71da8ac8509991e36b220b0cd96d042c74698f09690ac6c2eec06f24be56669460405160405180910390a28080600101915050612ada565b5050565b600f5481565b635bbe766081565b6000809054906101000a900473ffffffffffffffffffffffffffffffffffffffff1673ffffffffffffffffffffffffffffffffffffffff163373ffffffffffffffffffffffffffffffffffffffff16141515612c2657600080fd5b601a60019054906101000a900460ff16151515612c4257600080fd5b6000601a60006101000a81548160ff021916908315150217905550612c66816127a1565b50565b60105481565b6000612c79613924565b151515612c8557600080fd5b612c8d6128da565b1515612c9857600080fd5b612ca06138ae565b151515612cac57600080fd5b6000601b60003373ffffffffffffffffffffffffffffffffffffffff1673ffffffffffffffffffffffffffffffffffffffff16815260200190815260200160002054111515612cfa57600080fd5b612d606064612d52605f601b60003373ffffffffffffffffffffffffffffffffffffffff1673ffffffffffffffffffffffffffffffffffffffff16815260200190815260200160002054613a8090919063ffffffff16565b613a5690919063ffffffff16565b90506000601b60003373ffffffffffffffffffffffffffffffffffffffff1673ffffffffffffffffffffffffffffffffffffffff16815260200190815260200160002081905550612db13382613b35565b612dc681601754613b1490919063ffffffff16565b60178190555050565b6000809054906101000a900473ffffffffffffffffffffffffffffffffffffffff1673ffffffffffffffffffffffffffffffffffffffff163373ffffffffffffffffffffffffffffffffffffffff16141515612e2a57600080fd5b601a60019054906101000a900460ff16151515612e4657600080fd5b82600e8190555081601081905550806011819055506001601a60006101000a81548160ff021916908315150217905550505050565b600060149054906101000a900460ff1681565b60125481565b600080339150600160008373ffffffffffffffffffffffffffffffffffffffff1673ffffffffffffffffffffffffffffffffffffffff16815260200190815260200160002054905060008114151515612eec57600080fd5b803073ffffffffffffffffffffffffffffffffffffffff163110151515612f1257600080fd5b612f2781600254613b1490919063ffffffff16565b6002819055506000600160008473ffffffffffffffffffffffffffffffffffffffff1673ffffffffffffffffffffffffffffffffffffffff168152602001908152602001600020819055508173ffffffffffffffffffffffffffffffffffffffff166108fc829081150290604051600060405180830381858888f193505050501515612faf57fe5b5050565b60195481565b6000809054906101000a900473ffffffffffffffffffffffffffffffffffffffff1673ffffffffffffffffffffffffffffffffffffffff163373ffffffffffffffffffffffffffffffffffffffff1614151561301457600080fd5b6000601a60016101000a81548160ff021916908315150217905550565b60155481565b6000809054906101000a900473ffffffffffffffffffffffffffffffffffffffff1673ffffffffffffffffffffffffffffffffffffffff163373ffffffffffffffffffffffffffffffffffffffff1614151561309257600080fd5b6000809054906101000a900473ffffffffffffffffffffffffffffffffffffffff1673ffffffffffffffffffffffffffffffffffffffff167ff8df31144d9c2f0f6b59d69b8b98abd5459d07f2742c4df920b25aae33c6482060405160405180910390a260008060006101000a81548173ffffffffffffffffffffffffffffffffffffffff021916908373ffffffffffffffffffffffffffffffffffffffff160217905550565b60175481565b635bca53e081565b6000809054906101000a900473ffffffffffffffffffffffffffffffffffffffff1673ffffffffffffffffffffffffffffffffffffffff163373ffffffffffffffffffffffffffffffffffffffff161415156131a257600080fd5b600060149054906101000a900460ff161515156131be57600080fd5b6001600060146101000a81548160ff0219169083151502179055507f6985a02210a168e66602d3235cb6db0e70f92b3ba4d376a33c0f3d9434bff62560405160405180910390a1565b6000809054906101000a900473ffffffffffffffffffffffffffffffffffffffff1673ffffffffffffffffffffffffffffffffffffffff163373ffffffffffffffffffffffffffffffffffffffff1614151561326257600080fd5b6000600360008373ffffffffffffffffffffffffffffffffffffffff1673ffffffffffffffffffffffffffffffffffffffff16815260200190815260200160002060006101000a81548160ff02191690831515021790555050565b6000806000809054906101000a900473ffffffffffffffffffffffffffffffffffffffff1673ffffffffffffffffffffffffffffffffffffffff163373ffffffffffffffffffffffffffffffffffffffff1614151561331b57600080fd5b600091505b6007805490508210156136fa576008548473ffffffffffffffffffffffffffffffffffffffff166370a08231306040518263ffffffff167c0100000000000000000000000000000000000000000000000000000000028152600401808273ffffffffffffffffffffffffffffffffffffffff1673ffffffffffffffffffffffffffffffffffffffff168152602001915050602060405180830381600087803b1580156133cb57600080fd5b505af11580156133df573d6000803e3d6000fd5b505050506040513d60208110156133f557600080fd5b81019080805190602001909291905050501015151561341357600080fd5b6134b160646134a3856006600060078881548110151561342f57fe5b9060005260206000200160009054906101000a900473ffffffffffffffffffffffffffffffffffffffff1673ffffffffffffffffffffffffffffffffffffffff1673ffffffffffffffffffffffffffffffffffffffff16815260200190815260200160002054613a8090919063ffffffff16565b613a5690919063ffffffff16565b90508373ffffffffffffffffffffffffffffffffffffffff1663a9059cbb6007848154811015156134de57fe5b9060005260206000200160009054906101000a900473ffffffffffffffffffffffffffffffffffffffff16836040518363ffffffff167c0100000000000000000000000000000000000000000000000000000000028152600401808373ffffffffffffffffffffffffffffffffffffffff1673ffffffffffffffffffffffffffffffffffffffff16815260200182815260200192505050602060405180830381600087803b15801561358f57600080fd5b505af11580156135a3573d6000803e3d6000fd5b505050506040513d60208110156135b957600080fd5b81019080805190602001909291905050505061365681600660006007868154811015156135e257fe5b9060005260206000200160009054906101000a900473ffffffffffffffffffffffffffffffffffffffff1673ffffffffffffffffffffffffffffffffffffffff1673ffffffffffffffffffffffffffffffffffffffff16815260200190815260200160002054613b1490919063ffffffff16565b6006600060078581548110151561366957fe5b9060005260206000200160009054906101000a900473ffffffffffffffffffffffffffffffffffffffff1673ffffffffffffffffffffffffffffffffffffffff1673ffffffffffffffffffffffffffffffffffffffff168152602001908152602001600020819055506136e781600854613b1490919063ffffffff16565b6008819055508180600101925050613320565b50505050565b60008060009054906101000a900473ffffffffffffffffffffffffffffffffffffffff1673ffffffffffffffffffffffffffffffffffffffff163373ffffffffffffffffffffffffffffffffffffffff1614151561375d57600080fd5b600090505b815181101561384157600160036000848481518110151561377f57fe5b9060200190602002015173ffffffffffffffffffffffffffffffffffffffff1673ffffffffffffffffffffffffffffffffffffffff16815260200190815260200160002060006101000a81548160ff02191690831515021790555081818151811015156137e857fe5b9060200190602002015173ffffffffffffffffffffffffffffffffffffffff167f2e3361a4e7a8b067d0bbafcb5811e35ba5eccbb7a274be8bcfe4fb6f81fe30c860405160405180910390a28080600101915050613762565b5050565b600560009054906101000a900473ffffffffffffffffffffffffffffffffffffffff1681565b635c2164f081565b60036020528060005260406000206000915054906101000a900460ff1681565b601a60009054906101000a900460ff1681565b635bf9d7f081565b6000635c2164f04211905090565b60006010546017541015806138d45750635bf9d7f042115b806138e3575060125460185410155b80613901575060001515601a60009054906101000a900460ff161515145b905090565b60185481565b60016020528060005260406000206000915090505481565b60006011546017541015905090565b60085481565b6000809054906101000a900473ffffffffffffffffffffffffffffffffffffffff1673ffffffffffffffffffffffffffffffffffffffff163373ffffffffffffffffffffffffffffffffffffffff1614151561399457600080fd5b61399d81613be9565b50565b600d60009054906101000a900473ffffffffffffffffffffffffffffffffffffffff1681565b60145481565b601a60019054906101000a900460ff1681565b6000600460008373ffffffffffffffffffffffffffffffffffffffff1673ffffffffffffffffffffffffffffffffffffffff16815260200190815260200160002060009054906101000a900460ff169050919050565b6000808284019050838110151515613a4c57600080fd5b8091505092915050565b600080600083111515613a6857600080fd5b8284811515613a7357fe5b0490508091505092915050565b6000806000841415613a955760009150613ab7565b8284029050828482811515613aa657fe5b04141515613ab357600080fd5b8091505b5092915050565b6000600360008373ffffffffffffffffffffffffffffffffffffffff1673ffffffffffffffffffffffffffffffffffffffff16815260200190815260200160002060009054906101000a900460ff169050919050565b600080838311151515613b2657600080fd5b82840390508091505092915050565b613b8781600160008573ffffffffffffffffffffffffffffffffffffffff1673ffffffffffffffffffffffffffffffffffffffff16815260200190815260200160002054613a3590919063ffffffff16565b600160008473ffffffffffffffffffffffffffffffffffffffff1673ffffffffffffffffffffffffffffffffffffffff16815260200190815260200160002081905550613bdf81600254613a3590919063ffffffff16565b6002819055505050565b600073ffffffffffffffffffffffffffffffffffffffff168173ffffffffffffffffffffffffffffffffffffffff1614151515613c2557600080fd5b8073ffffffffffffffffffffffffffffffffffffffff166000809054906101000a900473ffffffffffffffffffffffffffffffffffffffff1673ffffffffffffffffffffffffffffffffffffffff167f8be0079c531659141344cd1fd0a4f28419497f9722a3daafe3b4186f6b6457e060405160405180910390a3806000806101000a81548173ffffffffffffffffffffffffffffffffffffffff021916908373ffffffffffffffffffffffffffffffffffffffff160217905550505600a165627a7a7230582025f93a28aa7b05f1de55a4868dcc2b22da24692522c4cdff578413f961e394a10029",
  "source": "pragma solidity ^0.4.24;\n\n\nimport \"./SafeMath.sol\";\nimport \"./LoligoToken.sol\";\nimport \"./Pausable.sol\";\nimport \"./PullPayment.sol\";\nimport \"./Whitelist.sol\";\nimport \"./TokenBonus.sol\";\n\n\n/*\n*  Crowdsale Smart Contract for the Loligo project\n*  Author: Yosra Helal yosra.helal@bechainsc.com\n*/\n\n\ncontract Crowdsale is Pausable, PullPayment, Whitelist, TokenBonus {\n    using SafeMath for uint256;\n\n\n    address private wallet = 0xA167274d791bF4f9C0267300c85a92D4A1d06F8c;\n    address private team = 0x7B690BB1852B7B3c592Ce9b457e09b82060Ee051;\n    address private advisors = 0x7CC2b50a1234d5418D69A5022647e9D53A38564A;\n    address private bounty = 0xcF6797210F1283549a5042b68AB67ae21B55e4f0;\n\n    LoligoToken public token;\n\n    uint256 public rate;                                                 // Rate LLG token per ether\n    uint256 public presaleRate;                                          // Rate presale LLG token per ether\n    // to define en ether\n    uint256 public  maxFundingGoal = 43000 ether;                             // Maximum goal in Ether raised\n    uint256 public  minFundingGoal = 3400 ether;                              // Minimum funding goal in Ether raised\n    // dates a modifier\n    uint256 public constant STARTDATEPRESALE = 1539208800;                             // epoch timestamp representing the start date (11 october 2018 00:00)\n    uint256 public constant STARTDATE = 1539986400;                                    // epoch timestamp representing the start date (20 october 2018 00:00)\n    uint256 public constant DEADLINE = 1543100400;                                     // epoch timestamp representing the end date (25 november 2018 00:00)\n    uint256 public constant REFUNDEADLINE = 1545692400;                                // epoch timestamp representing the end date of refund period (25 december 2018 00:00)\n\n    uint256 public totalTokensForSale = 11200000000000000000000000;                   // 11 200 000 LLG tokens will be sold in Crowdsale\n    uint256 public totalTokensForPresale;                                             // LLG tokens will be sold in Presale\n    uint256 public tokensForTeam = 480000000000000000000000;\n    uint256 public tokensForBounty = 480000000000000000000000;\n    uint256 public tokensForAdvisors = 1440000000000000000000000;\n\n    uint256 public savedBalance = 0;                                                   // Total amount raised in ETH\n    uint256 public savedTokenBalance = 0;                                              // Total sold tokens for presale\n    uint256 public savedPresaleTokenBalance = 0;                                       // Total sold tokens for crowdsale\n\n    bool public crowdsale;                                                     // crowdsale period\n    bool public presale;                                                        // presale period\n\n    mapping (address => uint256) balances;                                             // Balances in incoming Ether\n\n    // Events to record new contributions\n    event Contribution(address indexed _contributor, uint256 indexed _value, uint256 indexed _tokens);\n\n    // Event to record each time Ether is paid out\n    event PayEther(\n    address indexed _receiver,\n    uint256 indexed _value,\n    uint256 indexed _timestamp\n    );\n\n    // Event to record when tokens are burned.\n    event BurnTokens(\n    uint256 indexed _value,\n    uint256 indexed _timestamp\n    );\n\n    // Initialization\n    constructor(address _token) public {\n        // add address of the specific contract\n        token = LoligoToken(_token);\n    }\n\n\n    // Default Function, delegates to contribute function (for ease of use)\n    // WARNING: Not compatible with smart contract invocation, will exceed gas stipend!\n    // Only use from external accounts\n    function () public payable whenNotPaused {\n        if (msg.sender == wallet) {\n            balances[this] = msg.value;\n        }else {\n            if (presale && now >= STARTDATEPRESALE) {\n                buyPresaleTokens(msg.sender);\n            }else {\n                if(crowdsale && now >= STARTDATE) {\n                  buyTokens(msg.sender);\n                }\n            }\n        }\n    }\n\n    function closePresale() public onlyOwner {\n        presale = false;\n    }\n\n    // Function to set Rate & tokens to sell for presale\n    function setParamsPresale(uint256 _rate, uint256 _totalTokensForPresale) public onlyOwner {\n        presaleRate = _rate;\n        totalTokensForPresale = _totalTokensForPresale;\n        presale = true;\n    }\n\n    function setParams(uint256 _rate, uint256 _maxCap, uint256 _minCap) public onlyOwner {\n        require(!presale);\n        rate = _rate;\n        maxFundingGoal = _maxCap;\n        minFundingGoal = _minCap;\n        crowdsale = true;\n    }\n\n    // Function to check if crowdsale is complete (\n    function isComplete() public view returns (bool) {\n        return (savedBalance >= maxFundingGoal) || (now > DEADLINE) ||\n        (savedTokenBalance >= totalTokensForSale) || (crowdsale == false);\n    }\n\n    // Function to check if crowdsale has been successful\n    // (has incoming contribution balance met, or exceeded the minimum goal?)\n    function isSuccessful() public view returns (bool) {\n        return (savedBalance >= minFundingGoal);\n    }\n\n    // Function to check the refund period is over\n    function refundPeriodOver() public view returns (bool) {\n        return (now > REFUNDEADLINE);\n    }\n\n    // Function to check the refund period is over\n    function refundPeriodStart() public view returns (bool) {\n        return (now > DEADLINE);\n    }\n\n    // Only owner will finalize the crowdsale\n    function finalize(address _newOwner) public onlyOwner {\n        require(!presale);\n        crowdsale = false;\n        transferTokenOwnership(_newOwner);\n    }\n\n    // Function to pay out\n    function payout(address _newOwner) public onlyOwner {\n        if (isSuccessful() && isComplete()) {\n            require(token.transfer(team, tokensForTeam));\n            require(token.transfer(bounty, tokensForBounty));\n            require(token.transfer(advisors, tokensForAdvisors));\n            uint256 tokensToBurn =  token.balanceOf(address(this)).sub(savedBonusToken);\n            require(token.burn(tokensToBurn));\n            transferTokenOwnership(_newOwner);\n            crowdsale = false;\n        }else {\n            if (refundPeriodOver()) {\n                wallet.transfer(address(this).balance);\n                emit PayEther(wallet, address(this).balance, now);\n                require(token.burn(token.balanceOf(address(this))));\n                transferTokenOwnership(_newOwner);\n            }\n        }\n    }\n\n    /* When MIN_CAP is not reach the smart contract will be credited to make refund possible by backers\n     * 1) backer call the \"refund\" function of the Crowdsale contract\n     * 2) backer call the \"withdrawPayments\" function of the Crowdsale contract to get a refund in ETH\n     */\n    function refund() public {\n        require(!isSuccessful());\n        require(refundPeriodStart());\n        require(!refundPeriodOver());\n        require(balances[msg.sender] > 0);\n        uint amountToRefund = (balances[msg.sender].mul(95)).div(100);\n        balances[msg.sender] = 0;\n        asyncSend(msg.sender, amountToRefund);\n        savedBalance = savedBalance.sub(amountToRefund);\n    }\n\n    function transferTokenOwnership(address _newOwner) public onlyOwner {\n        token.transferOwnership(_newOwner);\n    }\n\n    // Contribute Function, accepts incoming payments and tracks balances for each contributors\n    function buyTokens(address _beneficiary) internal {\n        require(!isComplete());\n        require((savedBalance.add(msg.value)) <= maxFundingGoal);\n        require((savedTokenBalance.add(msg.value.div(rate))) <= totalTokensForSale);\n\n        if (isWhitelisted(_beneficiary)) {\n            uint256 tokensAmount;\n            require(msg.value >= 1 ether);\n            if (msg.value >= 10 ether) {\n                savedBalance = savedBalance.add(msg.value);\n                tokensAmount = msg.value.div(presaleRate);\n                uint256 bonus = tokensAmount.mul(30).div(100);\n                savedTokenBalance = savedTokenBalance.add(tokensAmount.add(bonus));\n                token.transfer(_beneficiary, tokensAmount);\n                savedBonusToken = savedBonusToken.add(bonus);\n                bonusBalances[_beneficiary] = bonusBalances[_beneficiary].add(bonus);\n                bonusList.push(_beneficiary);\n                wallet.transfer(msg.value);\n                emit PayEther(wallet, msg.value, now);\n            }else {\n                savedBalance = savedBalance.add(msg.value);\n                tokensAmount = msg.value.div(presaleRate);\n                uint256 tokensToTransfer = tokensAmount.add((tokensAmount.mul(30)).div(100));\n                savedTokenBalance = savedTokenBalance.add(tokensToTransfer);\n                token.transfer(_beneficiary, tokensToTransfer);\n                wallet.transfer(msg.value);\n                emit PayEther(wallet, msg.value, now);\n            }\n        }else {\n            balances[_beneficiary] = balances[_beneficiary].add(msg.value);\n            savedBalance = savedBalance.add(msg.value);\n            savedTokenBalance = savedTokenBalance.add(msg.value.div(rate));\n            token.transfer(_beneficiary, msg.value.div(rate));\n            wallet.transfer(msg.value);\n            emit PayEther(wallet, msg.value, now);\n        }\n    }\n\n    function buyPresaleTokens(address _beneficiary) internal {\n        require(msg.value >= 1 ether);\n        require(isPresaleWhitelisted(_beneficiary));\n        require((savedBalance.add(msg.value)) <= maxFundingGoal);\n        require((savedPresaleTokenBalance.add(msg.value.div(presaleRate))) <= totalTokensForPresale);\n        uint256 tokensAmount;\n\n        if (msg.value >= 10 ether) {\n            savedBalance = savedBalance.add(msg.value);\n            tokensAmount = msg.value.div(presaleRate);\n            uint256 bonus = tokensAmount.mul(30).div(100);\n            savedTokenBalance = savedTokenBalance.add(tokensAmount.add(bonus));\n            token.transfer(_beneficiary, tokensAmount);\n            savedBonusToken = savedBonusToken.add(bonus);\n            bonusBalances[_beneficiary] = bonusBalances[_beneficiary].add(bonus);\n            bonusList.push(_beneficiary);\n            wallet.transfer(msg.value);\n            emit PayEther(wallet, msg.value, now);\n        }else {\n            savedBalance = savedBalance.add(msg.value);\n            tokensAmount = msg.value.div(presaleRate);\n            uint256 tokensToTransfer = tokensAmount.add((tokensAmount.mul(30)).div(100));\n            savedTokenBalance = savedTokenBalance.add(tokensToTransfer);\n            token.transfer(_beneficiary, tokensToTransfer);\n            wallet.transfer(msg.value);\n            emit PayEther(wallet, msg.value, now);\n        }\n    }\n}\n",
  "sourcePath": "/home/yosra/loligo_ico/contracts/Crowdsale.sol",
  "compiler": {
    "name": "solc",
    "version": "0.4.24+commit.e67f0147.Emscripten.clang"
  },
  "schemaVersion": "2.0.0",
  "updatedAt": "2018-09-11T13:15:54.949Z"
}