{
  "contractName": "PullPayment",
  "abi": [
    {
      "constant": true,
      "inputs": [],
      "name": "totalPayments",
      "outputs": [
        {
          "name": "",
          "type": "uint256"
        }
      ],
      "payable": false,
      "stateMutability": "view",
      "type": "function"
    },
    {
      "constant": true,
      "inputs": [
        {
          "name": "",
          "type": "address"
        }
      ],
      "name": "payments",
      "outputs": [
        {
          "name": "",
          "type": "uint256"
        }
      ],
      "payable": false,
      "stateMutability": "view",
      "type": "function"
    },
    {
      "constant": false,
      "inputs": [],
      "name": "withdrawPayments",
      "outputs": [],
      "payable": false,
      "stateMutability": "nonpayable",
      "type": "function"
    }
  ],
  "bytecode": "0x608060405234801561001057600080fd5b5061027c806100206000396000f300608060405260043610610056576000357c0100000000000000000000000000000000000000000000000000000000900463ffffffff1680625b44871461005b5780636103d70b14610086578063e2982c211461009d575b600080fd5b34801561006757600080fd5b506100706100f4565b6040518082815260200191505060405180910390f35b34801561009257600080fd5b5061009b6100fa565b005b3480156100a957600080fd5b506100de600480360381019080803573ffffffffffffffffffffffffffffffffffffffff169060200190929190505050610217565b6040518082815260200191505060405180910390f35b60015481565b6000803391506000808373ffffffffffffffffffffffffffffffffffffffff1673ffffffffffffffffffffffffffffffffffffffff1681526020019081526020016000205490506000811415151561015157600080fd5b803073ffffffffffffffffffffffffffffffffffffffff16311015151561017757600080fd5b61018c8160015461022f90919063ffffffff16565b60018190555060008060008473ffffffffffffffffffffffffffffffffffffffff1673ffffffffffffffffffffffffffffffffffffffff168152602001908152602001600020819055508173ffffffffffffffffffffffffffffffffffffffff166108fc829081150290604051600060405180830381858888f19350505050151561021357fe5b5050565b60006020528060005260406000206000915090505481565b60008083831115151561024157600080fd5b828403905080915050929150505600a165627a7a72305820704a08e1a12601f9e62e6eeb87936bf074e910c54104e140fa2f9c05e8aa0e120029",
  "source": "pragma solidity ^0.4.24;\n\n\nimport \"./SafeMath.sol\";\n\n\n/**\n * @title PullPayment\n * @dev Base contract supporting async send for pull payments. Inherit from this\n * contract and use asyncSend instead of send.\n */\n\n// to check code with OpenZeppelin\ncontract PullPayment {\n    using SafeMath for uint256;\n\n    mapping (address => uint256) public payments;\n\n    uint256 public totalPayments;\n\n    /**\n    * @dev Called by the payer to store the sent amount as credit to be pulled.\n    * @param dest The destination address of the funds.\n    * @param amount The amount to transfer.\n    */\n    function asyncSend(address dest, uint256 amount) internal {\n        payments[dest] = payments[dest].add(amount);\n        totalPayments = totalPayments.add(amount);\n    }\n\n    /**\n    * @dev withdraw accumulated balance, called by payee.\n    */\n    function withdrawPayments() {\n        address payee = msg.sender;\n        uint256 payment = payments[payee];\n\n        require(payment != 0);\n        require(address(this).balance >= payment);\n\n        totalPayments = totalPayments.sub(payment);\n        payments[payee] = 0;\n\n        assert(payee.send(payment));\n    }\n}\n",
  "sourcePath": "/home/yosra/loligo_ico/contracts/PullPayment.sol",
  "compiler": {
    "name": "solc",
    "version": "0.4.24+commit.e67f0147.Emscripten.clang"
  },
  "schemaVersion": "2.0.0",
  "updatedAt": "2018-09-11T13:15:54.935Z"
}